:020000040000FA
:100000000C94E2000C940A010C940A010C940A016D
:100010000C940A010C940A010C940A010C940A0134
:100020000C940A010C940A010C940A010C940A0124
:100030000C940A010C940A010C940A010C940A0114
:100040000C9476110C940A010C9444110C941E111A
:100050000C940A010C940A010C940A010C940A01F4
:100060000C940A010C940A01005EBCE2613FDD833E
:10007000C29C7E20A3FD1F419DC3217FFCA2401E88
:100080005F01E3BD3E6082DC237D9FC1421CFEA078
:10009000E1BF5D0380DE3C62BEE0025CDF81633D68
:1000A0007C22C09E1D43A1FF4618FAA427799BC558
:1000B00084DA3866E5BB5907DB856739BAE4065848
:1000C0001947A5FB7826C49A653BD987045AB8E638
:1000D000A7F91B45C6987A24F8A6441A99C7257B28
:1000E0003A6486D85B05E7B98CD2306EEDB3510F18
:1000F0004E10F2AC2F7193CD114FADF3702ECC9208
:10010000D38D6F31B2EC0E50AFF1134DCE90722CF7
:100110006D33D18F0C52B0EE326C8ED0530DEFB1E7
:10012000F0AE4C1291CF2D73CA947628ABF51749D7
:100130000856B4EA6937D58B5709EBB536688AD4C7
:1001400095CB2977F4AA4816E9B7550B88D6346AB7
:100150002B7597C94A14F6A8742AC896154BA9F7A7
:10016000B6E80A54D7896B35000000080002010088
:100170000003040700000000000000000000000071
:10018000250028002B0000000000240027002A0082
:1001900000000000230026002900040404040404D5
:1001A0000404020202020202030303030303010226
:1001B00004081020408001020408102001020408F5
:1001C0001020C01111241FBECFEFD8E0DEBFCDBF7D
:1001D00022E0A4EBB1E001C01D92AE3AB207E1F714
:1001E00011E0A0E0B1E0E6E5F3E302C005900D9276
:1001F000A43BB107D9F710E0C2EED0E004C02197CC
:10020000FE010E947E18C13ED107C9F70E94FF116E
:100210000C94A9190C940000E7ECF1E0A089B189D5
:1002200082E08C93A485B5851C92A685B7858FEC5A
:100230008C93108EA489B58986E08C93A289B389AA
:100240008C9180618C93A289B3898C9188608C9306
:10025000A289B3898C9180688C930288F389E02D00
:1002600080818F7D80830895AF92BF92CF92DF927D
:10027000EF92FF920F931F93CF93DF936C017B015B
:100280008B01040F151FEB015E01AE18BF08C017EC
:10029000D10759F06991D601ED91FC910190F0815F
:1002A000E02DC6010995892B79F7C501DF91CF9122
:1002B0001F910F91FF90EF90DF90CF90BF90AF9084
:1002C00008950895FC01538D448D252F30E0842F2F
:1002D00090E0821B930B541710F0CF96089501976E
:1002E0000895FC01918D828D981761F0A28DAE0F5B
:1002F000BF2FB11D5D968C91928D9F5F9F73928FE2
:1003000090E008958FEF9FEF0895FC01918D828D0D
:10031000981731F0828DE80FF11D858D90E00895DA
:100320008FEF9FEF0895FC01918D228D892F90E032
:10033000805C9F4F821B91098F739927089587ECEA
:1003400091E00E94930121E0892B09F420E0822FA3
:10035000089580E090E0892B29F00E949F0181118F
:100360000C9400000895FC01A48DA80FB92FB11DB5
:10037000A35ABF4F2C91848D90E001968F739927DB
:10038000848FA689B7892C93A089B1898C918370B9
:1003900080648C93938D848D981306C00288F389B2
:1003A000E02D80818F7D80830895EF92FF920F93DF
:1003B0001F93CF93DF93EC0181E0888F9B8D8C8D11
:1003C00098131AC0E889F989808185FF15C09FB705
:1003D000F894EE89FF896083E889F98980818370C8
:1003E000806480839FBF81E090E0DF91CF911F9177
:1003F0000F91FF90EF900895F62E0B8D10E00F5F98
:100400001F4F0F731127E02E8C8D8E110CC00FB66D
:1004100007FCFACFE889F989808185FFF5CFCE0105
:100420000E94B301F1CFEB8DEC0FFD2FF11DE35ACC
:10043000FF4FF0829FB7F8940B8FEA89FB89808188
:100440008062CFCFCF93DF93EC01888D8823B9F002
:10045000AA89BB89E889F9898C9185FD03C08081CF
:1004600086FD0DC00FB607FCF7CF8C9185FFF2CF4C
:10047000808185FFEDCFCE010E94B301E9CFDF91EE
:10048000CF91089590E0FC01E859FE4F2491FC01C2
:10049000E255FE4F3491FC01E656FE4FE491EE2307
:1004A000C9F0222339F0233001F1A8F4213019F1E9
:1004B000223029F1F0E0EE0FFF1FE458FE4FA59126
:1004C000B4918FB7F894EC91611126C030953E231A
:1004D0003C938FBF08952730A9F02830C9F024300D
:1004E00049F7809180008F7D03C0809180008F77D5
:1004F00080938000DFCF84B58F7784BDDBCF84B558
:100500008F7DFBCF8091B0008F778093B000D2CFEA
:100510008091B0008F7DF9CF3E2BDACF3FB7F894B2
:100520008091B9019091BA01A091BB01B091BC0139
:1005300026B5A89B05C02F3F19F00196A11DB11D3E
:100540003FBFBA2FA92F982F8827BC01CD01620F7A
:10055000711D811D911D42E0660F771F881F991F35
:100560004A95D1F708958F929F92AF92BF92CF9202
:10057000DF92EF92FF926B017C010E948E024B0191
:100580005C01C114D104E104F104B9F00E948E02AF
:10059000681979098A099B09683E734081059105AC
:1005A00080F321E0C21AD108E108F10888EE880E34
:1005B00083E0981EA11CB11CE4CFFF90EF90DF9068
:1005C000CF90BF90AF909F908F9008952FB7F894E1
:1005D0006091B5017091B6018091B7019091B80119
:1005E0002FBF0895DC0180E0615038F0ED91E827DD
:1005F000F0E0E859FF4F8491F7CF0895DC012C918A
:100600001196ED91FC91F8948181822B81839281E6
:10061000322F30959323928387E090E00197F1F792
:1006200081818323818383E290E00197F1F79081B8
:100630007894EFECF0E03197F1F7922381E009F440
:1006400080E00895FC0190810180F281E02D292F46
:10065000209560FF14C0F894828182238283818177
:10066000892B8183A3E2B0E01197F1F78281982B67
:100670009283789487ED90E00197F1F70895F894CC
:100680008281822382838181892B8183AFEFB0E0D5
:100690001197F1F78281982B928378948FE090E004
:1006A000EBCFDF92EF92FF920F931F93CF93DF93E5
:1006B000EC01D62EE42E08E010E0FF24F39461E074
:1006C0008D2D8F2109F460E0CE010E942203FF0CE2
:1006D00001501109A1F7E11010C0F894E981FA81E5
:1006E00091818881809589238183E981FA81928132
:1006F00088818095892382837894DF91CF911F919F
:100700000F91FF90EF90DF900895EF92FF920F937B
:100710001F93CF93DF938C017B0140E065E50E943E
:100720005103E70188E0E80EF11C699140E0C8013F
:100730000E945103CE15DF05C1F7DF91CF911F91C4
:100740000F91FF90EF900895FC0190810180F2815C
:10075000E02DF8948181292F20958223818378943C
:100760003DE743E050E0315029F1DA011197F1F70C
:1007700080818923C1F3F8948281822382838181DD
:10078000892B81837894ABE7B7E01197F1F7F89460
:10079000818182238183A3E1B1E01197F1F7808108
:1007A000982381E009F080E07894E3E6F6E0319761
:1007B000F1F7089580E008956F927F928F929F9253
:1007C000AF92BF92CF92DF92EF92FF920F931F935F
:1007D000CF93DF93EC017B018A018D819E810E9482
:1007E000A403811102C090E037C0B7018D819E81C2
:1007F0000E94850340E06EEB8D819E810E94510333
:100800007801680189E0C80ED11CAD80BE8088E007
:10081000882E912C712C66246394C5010E94FE02DF
:1008200081117628660CE1E08E1A9108B1F7F70184
:1008300071927F01EC15FD0541F78D819E810E942B
:10084000A403813081F668E0C8010E94F20291E0C1
:10085000F80120852813C7CF892FDF91CF911F91F1
:100860000F91FF90EF90DF90CF90BF90AF909F904F
:100870008F907F906F900895CF93DF93CDB7DEB7C1
:1008800029970FB6F894DEBF0FBECDBFFB012081C4
:10089000203199F0AE014F5F5F4F0E94DC03882347
:1008A00031F08D818F33A9F020F48F31A1F080E0F9
:1008B00007C08F3521F08F37D1F78CE001C08BE076
:1008C00029960FB6F894DEBF0FBECDBFDF91CF9152
:1008D00008958AE0F5CF89E0F3CF0F931F93CF936C
:1008E000DF938B01EC016A817B816115710551F009
:1008F000CE01F80109951816190624F00A80DB814B
:10090000C02DF1CFCE01DF91CF911F910F910895AE
:100910000F931F93CF93DF938B01EC016A817B814F
:100920006115710551F0CE01F801099518161906E7
:1009300024F00A80DB81C02DF1CFCE01DF91CF9171
:100940001F910F9108954F925F926F927F928F92B5
:100950009F92AF92BF92CF92DF92EF92FF920F934E
:100960001F93CF93DF93FC01228133812230310525
:10097000F4F05B016C012C01F4E04F0E511C72018C
:10098000F701C081D1812097D1F3B501CE010E943A
:100990006D044C01FC010281138101151105C1F4A4
:1009A000E414F50461F7F601978386831486DF91DA
:1009B000CF911F910F91FF90EF90DF90CF90BF905C
:1009C000AF909F908F907F906F905F904F90089521
:1009D000B501C8010E946D04FC0162807380F401BE
:1009E00013821282FC0113821282B801CE01F5013A
:1009F0000995F701181619066CF0D183C0837E01A2
:100A0000F2E0EF0EF11C8A819B81009781F41B8339
:100A10000A831CC0118300837801F2E0EF0EF11C01
:100A2000F801828193810097D1F08C01CE01EC0115
:100A3000DCCFEC018A819B810097D9F77B826A82A7
:100A40007E01F2E0EF0EF11C9BCF8C01F801828158
:100A500093810097D1F7738262827801F2CFD383BA
:100A6000C283E8CFCF93DF93EC01E881F981048062
:100A7000F581E02DCE0109951816190644F4E88198
:100A8000F9810288F389E02DCE010995EECFDF913F
:100A9000CF9108954F925F926F927F928F929F9223
:100AA000AF92BF92CF92DF92EF92FF920F931F937C
:100AB000CF93DF93FC012281338122303105F4F0A2
:100AC0005B016C012C01F4E04F0E511C7201F70127
:100AD000C081D1812097D1F3B501CE010E94880455
:100AE0004C01FC010281138101151105C1F4E414CC
:100AF000F50461F7F601978386831486DF91CF9121
:100B00001F910F91FF90EF90DF90CF90BF90AF902B
:100B10009F908F907F906F905F904F900895B50158
:100B2000C8010E948804FC0162807380F401138272
:100B30001282FC0113821282B801CE01F5010995DF
:100B4000F701181619066CF0D183C0837E01F2E01C
:100B5000EF0EF11C8A819B81009781F41B830A832D
:100B60001CC0118300837801F2E0EF0EF11CF80144
:100B7000828193810097D1F08C01CE01EC01DCCF12
:100B8000EC018A819B810097D9F77B826A827E0182
:100B9000F2E0EF0EF11C9BCF8C01F8018281938172
:100BA0000097D1F7738262827801F2CFD383C28338
:100BB000E8CFCF93DF93EC01E881F9810480F581E0
:100BC000E02DCE0109951816190644F4E881F98143
:100BD0000288F389E02DCE010995EECFDF91CF9108
:100BE0000895DC011496ED91FC9115971C968C915B
:100BF0001C978823B1F01A962D913C911B97621790
:100C000073077CF01896ED91FC911997261737071A
:100C10005CF43097C1F00280F381E02D2F5F3F4FED
:100C2000F5CF30E020E0F2CF2617370771F481E0EE
:100C30001C968C931C971B963C932E931A9719968F
:100C4000FC93EE931897CF010895F0E0E0E0FBCF1E
:100C5000CF93DF9377FD10C0FC01228133816217AF
:100C6000730754F4EA010E94F105FC01D183C083AB
:100C700081E0DF91CF91089580E0FBCFCF93DF93A8
:100C800077FD10C0FC01228133816217730754F491
:100C9000EA010E94F105FC01D183C08381E0DF916C
:100CA000CF91089580E0FBCFFC018281938108956C
:100CB0000E94F105009721F0FC0180819181089547
:100CC00090E080E008950E94F105009721F0FC017A
:100CD00080819181089590E080E008950F931F93A3
:100CE000CF93DF938B01EC0169817A8161157105E6
:100CF00051F0CE01F80109951816190624F0098063
:100D0000DA81C02DF1CFCE01DF91CF911F910F91EC
:100D100008954F925F926F927F928F929F92AF92BF
:100D2000BF92CF92DF92EF92FF920F931F93CF93D8
:100D3000DF93FC012281338122303105F4F05B0125
:100D40006C012C01F4E04F0E511C7201F701C081BF
:100D5000D1812097D1F3B501CE010E946E064C01DE
:100D6000FC010181128101151105C1F4E414F5049F
:100D700061F7F601978386831486DF91CF911F91E7
:100D80000F91FF90EF90DF90CF90BF90AF909F902A
:100D90008F907F906F905F904F900895B501C8013C
:100DA0000E946E06FC0161807280F4011282118241
:100DB000FC0112821182B801CE01F5010995F701FB
:100DC000181619066CF0D183C0837E01FFEFEF1A6D
:100DD000FF0A89819A81009781F41A8309831CC0D4
:100DE000118300837801FFEFEF1AFF0AF801818178
:100DF00092810097D1F08C01CE01EC01DCCFEC01A7
:100E000089819A810097D9F77A8269827E01FFEF02
:100E1000EF1AFF0A9BCF8C01F80181819281009724
:100E2000D1F7728261827801F2CFD283C183E8CF99
:100E3000CF93DF93EC01E881F9810480F581E02D07
:100E4000CE0109951816190644F4E881F981028843
:100E5000F389E02DCE010995EECFDF91CF91089572
:100E6000DC011496ED91FC9115971C968C911C97C2
:100E70008823B1F01A962D913C911B976217730746
:100E80007CF01896ED91FC911997261737075CF4C2
:100E90003097C1F00180F281E02D2F5F3F4FF5CFF9
:100EA00030E020E0F2CF2617370771F481E01C967E
:100EB0008C931C971B963C932E931A971996FC9330
:100EC000EE931897CF010895F0E0E0E0FBCFCF93C9
:100ED00077FD0EC0FC01228133816217730744F451
:100EE000C42F0E943007FC01C08381E0CF91089598
:100EF00080E0FCCF0E943007009719F0FC01808150
:100F0000089580E00895BF92CF92DF92EF92FF9212
:100F10000F931F93CF93DF93EC01B62EC72EED8472
:100F2000E11004C00E94A40381110EC01B861D861F
:100F30001C8680E0DF91CF911F910F91FF90EF9081
:100F4000DF90CF90BF90089540E060EFCE010E9407
:100F50005103D12C01E011E0CE010E94FE02F82ED7
:100F6000CE010E94FE0291E0F91218C0813099F57D
:100F70001134E0F2EB86E11002C081E08D878B81B5
:100F80008823A1F22396EB2DFC2DCF010896299101
:100F90002193E817F907D9F781E0CCCFED2DF0E0E8
:100FA000F8120FC08B851817A0F4DE01AE0FBF1F1B
:100FB00013968C91802379F4F12C193008F41C8756
:100FC000E12EEC0FFD1F8381902F90958923838361
:100FD0000AC08113F1CFFE01ED0DF11D8381802B3D
:100FE0008383FF24F3946F2DCE010E9422031F5FA1
:100FF000000F11F4D39401E087E08D1508F0ACCF19
:10100000B7CFEF92FF920F931F93CF93DF937C01A3
:101010008B01D42FDC011596ED91FC91138615867A
:101020001486128611861086178216821582148203
:101030001382C0E0B801F701858196810E94830781
:10104000882329F0DC1759F0CF5FDC1798F780E090
:10105000DF91CF911F910F91FF90EF90089567E07E
:10106000C8010E94F202D80117969C918913ECCF17
:1010700081E0EECF4F925F926F927F92AF92BF92DC
:10108000CF92DF92EF92FF920F931F93CF93DF9354
:10109000CDB7DEB761970FB6F894DEBF0FBECDBFF8
:1010A0006C01E12CF12C412C512C32010E2D10E061
:1010B000D60117968D919C91DC01ED91FC910480F5
:1010C000F581E02D0995081719070CF0B3C0F6015A
:1010D00087819085DC01ED91FC910488F589E02DF4
:1010E000B8010995FC0180859185039709F056C0E8
:1010F000D60117968D919C91DC01ED91FC910488AD
:10110000F589E02DB80109955C01FC010481158188
:10111000D80115968D919C910E94A40340E06CEC3F
:10112000F801858196810E945103D8014C9164E4B5
:1011300015968D919C910E945103F801828188231C
:1011400099F0E181E9506EEE72E0E33038F4F0E0BE
:10115000EE0FFF1FEA5FFE4F60817181072E000CCA
:10116000880B990B0E94B302D50114960D911C9126
:10117000159711964C91BE01665F7F4FC8010E9482
:10118000010881110DC020E030E04EEF52ECC301A8
:10119000B2010E943F172B013C01F394E39486CFE8
:1011A000AE014F5F5F4FBE01665F7F4FC8010E9477
:1011B000DC03882341F36A8170E0762F6627770F7E
:1011C000770F770F2981B8E02B9F90011124262BF0
:1011D000372B8A858031D1F4688570E08F81FB01DF
:1011E000E81BF109CF019695982F88279795879549
:1011F0000E945618CB014097B90153E0660F771F44
:101200005A95E1F760789C01260F371F2138F4EEDC
:101210003F070CF4B8CFB901330F880B990B0E942C
:10122000FF1520E030E040E05CE30E945E169B0189
:10123000AC01ADCF6F2D70E090E080E00E94FF1513
:101240009B01AC01C301B2010E94AB1761960FB6BE
:10125000F894DEBF0FBECDBFDF91CF911F910F91EC
:10126000FF90EF90DF90CF90BF90AF907F906F9006
:101270005F904F900895FC0101900020E9F73197AD
:10128000AF01481B590BBC0187EC91E00C94340171
:101290008F929F92AF92BF920F931F93CF93DF9342
:1012A000CDB7DEB7A1970FB6F894DEBF0FBECDBFA6
:1012B00019A2423008F44AE08E010F5D1F4F842EC0
:1012C000912CB12CA12CA50194010E941C17E62F92
:1012D000B901CA01EA30F4F4E05DD801EE938D0162
:1012E000232B242B252B79F790E080E0109719F021
:1012F000CD010E943B09A1960FB6F894DEBF0FBE48
:10130000CDBFDF91CF911F910F91BF90AF909F9074
:101310008F900895E95CE1CFEF92FF920F931F93B6
:10132000CF93DF9300D000D0CDB7DEB787EC91E04C
:101330000E94710187EC91E00E9471018E010F5FA4
:101340001F4F78018A3341F0F80181938F0187ECB8
:1013500091E00E947101F6CFC7010E94D215182FAB
:1013600087EC91E00E9471018053990B82309105C6
:1013700020F4682F812F0E94420287EC91E00E94A6
:1013800071018A3011F08D30C1F787EC91E00E9435
:1013900085018A3021F487EC91E00E9471010F9061
:1013A0000F900F900F90DF91CF911F910F91FF90B1
:1013B000EF9008952F923F924F925F926F927F929B
:1013C0008F929F92AF92BF92CF92DF92EF92FF9255
:1013D0000F931F93CF93DF93CDB7DEB761970FB60F
:1013E000F894DEBF0FBECDBF6C018B015A018CE0BB
:1013F000D6018C9380E395E7A0E0B0E0F60181830D
:101400009283A383B4838DE090E00E948418FC0152
:101410008CE491E091838083158214821782168276
:101420001382128211861086138612861486D601C4
:101430001696FC93EE9315978DE090E00E94841829
:10144000FC018EE291E091838083158214821782E1
:1014500016821382128211861086138612861486D3
:10146000D6011896FC93EE93179780E090E0A8EDD4
:10147000B1E4F60181879287A387B487F12C6F2DA1
:1014800070E0D80112968D919C9168177907D4F479
:10149000C8010E947A07E82E83E090E00E94841839
:1014A000BC01FC01E08212821182D60115968D9159
:1014B0009C91DC01ED91FC910084F185E02D099572
:1014C000F394DDCF712C71E6472E71E0572E662420
:1014D0006394EFE32E2E672D70E0F50182819381F6
:1014E000681779070CF0D0C1C5010E947A07182F40
:1014F0008AE090E00E9484187C01DC011C93119624
:101500007C928EE090E00E9484184C01812F90E044
:10151000AC0142555E4FFA01049186569E4FFC0184
:1015200024912223C1F030E0220F331FF901EA5742
:10153000FE4FA591B491F901E458FE4F6591749165
:101540003FB7F8942C91009520232C93DB012C912C
:1015500002230C933FBFFA014491D4014C93FC0148
:101560008491E82FF0E0EE0FFF1FE057FE4F8591CA
:10157000949112969C938E9311971B961C921B9795
:101580001D961C921D971C961C92F70193828282D5
:1015900083E190E00E9484188C01DC0152965C92F9
:1015A0004E92519716969C928E92159714961C9275
:1015B00014971C92E9E01196EC93119712966C9295
:1015C000129713966C92D70115969C938E9314974D
:1015D000F6013080D4011A961C921A9719961C9223
:1015E000199718961C92189717961C92179716968B
:1015F0001C92169715961C92159714961C92149788
:1016000013961C92BE016F5F7F4FF8018581968112
:101610000E948307882309F450C067E0CE01019639
:101620000E94F20298858913EDCFD8018C91811127
:1016300025C015968D919C910E94A403BE016F5FF9
:101640007F4FF801858196810E94850340E064EB1D
:10165000D80115968D919C910E945103F8018581C6
:1016600096810E94FE02982ED80115968D919C912C
:101670000E94A403911002C0F8016082D801119663
:101680009C90BE016F5F7F4FC8010E943C0489158A
:1016900068F4F8018181D80111968C931197149602
:1016A0008C9114978F5F14968C93ACCFBE016F5FB3
:1016B0007F4FC8010E943C04EECFF701668177811D
:1016C0004181848195810E940108D70114960D9172
:1016D0001C91159716968D909C90BCE0B31520F543
:1016E0009CE0392EB401C8010E943C04381609F46C
:1016F00084C0AE014F5F5F4FB401C8010E94DC039C
:10170000882309F47AC0D4018C91803109F475C022
:10171000BBE03B1609F486C0ECE03E1659F0FAE057
:101720003F1283C02D8208C0E9E03E16D8F689E05A
:10173000382ED8CF8FE78D83F801858196810E945E
:10174000A403B401D80115968D919C910E94850344
:1017500040E06EE4F801858196810E94510340E0EB
:101760006B81D80115968D919C910E94510340E0A8
:101770006C81F801858196810E945103D4018C917E
:10178000803139F040E06D81F801858196810E94B9
:101790005103D80115968D919C910E94A403B40128
:1017A000F801858196810E948503D8014C9168E4F7
:1017B00015968D919C910E94510364E170E080E048
:1017C00090E00E94B302F8018081882331F06AE042
:1017D00070E080E090E00E94B302D80115968D91F0
:1017E0009C910E94A403F8018181831508F4832D44
:1017F0003816F0F0D80111968C93E3E0F0E0D701B1
:101800001996FC93EE931897D60117968D919C919B
:10181000DC01ED91FC910084F185E02DB701099583
:10182000739459CE9FE59D8387CFAFE1AD8384CF7D
:10183000F8013182912C812CD80114968C91881555
:101840001904D9F2D4F2482DBE01665F7F4FC8015A
:101850000E940108F8013180BE01665F7F4FC80118
:101860000E943C04831548F4D80111968C91F8012C
:101870008183FFEF8F1A9F0ADFCFBE01665F7F4F24
:10188000C8010E943C04F3CF61960FB6F894DEBF06
:101890000FBECDBFDF91CF911F910F91FF90EF90C1
:1018A000DF90CF90BF90AF909F908F907F906F9080
:1018B0005F904F903F902F900895EF92FF920F937B
:1018C0001F93CF93DF93DC0112960D911C91139718
:1018D0000115110561F4ED91FC910084F185E02D75
:1018E000DF91CF911F910F91FF90EF9009947B01B1
:1018F000EC0184E090E00E9484182C813D81FC0181
:1019000033832283F182E0829D838C830F5F1F4F9C
:101910001B830A831C8681E0DF91CF911F910F9179
:10192000FF90EF900895CF92DF92EF92FF920F9386
:101930001F93CF93DF93EB01BA01DC0112964D9117
:101940005C911397C417D50774F0ED91FC91008456
:10195000F185E02DDF91CF911F910F91FF90EF90D6
:10196000DF90CF900994209731F4ED91FC9102849F
:10197000F385E02DEFCF8B017C0184E090E00E94A5
:1019800084186C01FC011182108213821282BE0144
:1019900061507109C7010E94F105D60111961C938F
:1019A0000E93FC012281338113963C932E93129760
:1019B000D382C282D70112968D919C911397019682
:1019C00013969C938E9312971C961C9281E0DF9144
:1019D000CF911F910F91FF90EF90DF90CF900895DE
:1019E000EF92FF920F931F93CF93DF93DC01129638
:1019F0000D911C9113970115110561F4ED91FC9166
:101A00000084F185E02DDF91CF911F910F91FF9020
:101A1000EF9009947B01EC0184E090E00E9484182F
:101A20002C813D81FC0133832283F182E0829D83FE
:101A30008C830F5F1F4F1B830A831C8681E0DF911D
:101A4000CF911F910F91FF90EF900895CF92DF9269
:101A5000EF92FF920F931F93CF93DF93EB01BA01A5
:101A6000DC0112964D915C911397C417D50774F061
:101A7000ED91FC910084F185E02DDF91CF911F91D4
:101A80000F91FF90EF90DF90CF900994209731F461
:101A9000ED91FC910284F385E02DEFCF8B017C0169
:101AA00084E090E00E9484186C01FC011182108295
:101AB00013821282BE0161507109C7010E94F105B3
:101AC000D60111961C930E93FC012281338113964B
:101AD0003C932E931297D382C282D70112968D9196
:101AE0009C911397019613969C938E9312971C9634
:101AF0001C9281E0DF91CF911F910F91FF90EF90A9
:101B0000DF90CF9008950F931F93CF93DF93EC0155
:101B10008B0184E090E00E948418FC011382128201
:101B2000118300832C813D81232B91F0EE81FF8175
:101B3000938382839F838E838A819B8101969B837B
:101B40008A831C8681E0DF91CF911F910F910895C8
:101B50009D838C83EFCF0F931F93CF93DF93EC0183
:101B60008B0184E090E00E948418FC0113821282B1
:101B7000118300832C813D81232B91F0EE81FF8125
:101B8000938382839F838E838A819B8101969B832B
:101B90008A831C8681E0DF91CF911F910F91089578
:101BA0009D838C83EFCFFF920F931F93CF93DF938F
:101BB000DC0112960D911C9113970115110559F432
:101BC000ED91FC910084F185E02DDF91CF911F9183
:101BD0000F91FF900994F62EEC0183E090E00E94B3
:101BE00084182C813D81FC0132832183F0829D8306
:101BF0008C830F5F1F4F1B830A831C8681E0DF915C
:101C0000CF911F910F91FF900895DF92EF92FF9275
:101C10000F931F93CF93DF93EB01642FDC01129698
:101C20004D915C911397C417D5076CF0ED91FC9121
:101C30000084F185E02DDF91CF911F910F91FF90EE
:101C4000EF90DF900994209731F4ED91FC9102849C
:101C5000F385E02DF0CFD62E8C0183E090E00E943A
:101C600084187C01FC01108212821182BE01615035
:101C70007109C8010E943007D701DC92FC01218163
:101C8000328112963C932E931197F282E182D80111
:101C900012968D919C911397019613969C938E9317
:101CA00012971C961C9281E0DF91CF911F910F91AA
:101CB000FF90EF90DF9008951F93CF93DF93EC0197
:101CC000162F83E090E00E948418FC01128211829A
:101CD00010832C813D81232B89F0EE81FF8192833B
:101CE00081839F838E838A819B8101969B838A83D4
:101CF0001C8681E0DF91CF911F9108959D838C8395
:101D0000F0CF0F931F93CF93DF9377FD41C0DC019A
:101D100012962D913C91139762177307CCF56115BC
:101D2000710551F4ED91FC910288F389E02DDF916A
:101D3000CF911F910F910994215031092617370730
:101D400031F4ED91FC910088F189E02DF0CFEC01A8
:101D5000615071090E94F105DC011296ED91FC9130
:101D60001397008111812281338113963C932E9326
:101D70001297CF010E9420198A819B8101979B8332
:101D80008A831C86C801DF91CF911F910F9108951E
:101D900010E000E0F7CFEF92FF920F931F93CF93E5
:101DA000DF93DC0112962D913C91139712161306C6
:101DB0004CF521303105D1F0EC018C819D81FC0185
:101DC000E280F380008111810E942019FD82EC8263
:101DD0008A819B8101979B838A831C86C801DF913E
:101DE000CF911F910F91FF90EF900895ED91FC918D
:101DF0000088F189E02DDF91CF911F910F91FF9025
:101E0000EF90099410E000E0E9CFEF92FF920F937A
:101E10001F93CF93DF93FC016281738110E000E098
:101E200016161706E4F4EC01148661307105F9F01A
:101E3000625071090E94F1057C01FC01828193814D
:101E4000FC01008111810E942019F7011382128286
:101E5000FF82EE828A819B8101979B838A83C801DE
:101E6000DF91CF911F910F91FF90EF9008958481A2
:101E70009581FC01008111810E9420191D821C8224
:101E80001F821E821B821A82EACFCF93DF93EC015E
:101E90008CE491E0998388838C819D81009741F047
:101EA000FC01228133813D832C830E942019F4CFD1
:101EB000DF91CF910895CF93DF93EC010E94450FFE
:101EC000CE01DF91CF910C942019EF92FF920F93E6
:101ED0001F93CF93DF93DC0112962D913C911397C2
:101EE000121613064CF521303105D1F0EC018C812E
:101EF0009D81FC01E280F380008111810E94201904
:101F0000FD82EC828A819B8101979B838A831C8658
:101F1000C801DF91CF911F910F91FF90EF9008952D
:101F2000ED91FC910088F189E02DDF91CF911F9117
:101F30000F91FF90EF90099410E000E0E9CFEF924D
:101F4000FF920F931F93CF93DF93FC016281738104
:101F500010E000E016161706E4F4EC011486613078
:101F60007105F9F0625071090E94F1057C01FC01D4
:101F700082819381FC01008111810E942019F70167
:101F800013821282FF82EE828A819B8101979B835A
:101F90008A83C801DF91CF911F910F91FF90EF903D
:101FA000089584819581FC01008111810E9420198E
:101FB0001D821C821F821E821B821A82EACF0F930F
:101FC0001F93CF93DF9377FD41C0DC0112962D91D3
:101FD0003C91139762177307CCF56115710551F4A5
:101FE000ED91FC910288F389E02DDF91CF911F9153
:101FF0000F910994215031092617370731F4ED91DB
:10200000FC910088F189E02DF0CFEC01615071095D
:102010000E94F105DC011296ED91FC91139700816D
:1020200011812281338113963C932E931297CF0115
:102030000E9420198A819B8101979B838A831C8639
:10204000C801DF91CF911F910F91089510E000E03A
:10205000F7CFCF93DF93EC018EE291E099838883F1
:102060008C819D81009741F0FC01228133813D8369
:102070002C830E942019F4CFDF91CF910895CF9344
:10208000DF93EC010E942910CE01DF91CF910C94D7
:102090002019EF92FF921F93CF93DF93DC011296EA
:1020A0002D913C9113971216130634F5213031050A
:1020B000C1F0EC018C819D81FC01E180F2801081F6
:1020C0000E942019FD82EC828A819B8101979B836B
:1020D0008A831C86812FDF91CF911F91FF90EF9013
:1020E0000895ED91FC910088F189E02DDF91CF9169
:1020F0001F91FF90EF90099410E0ECCFEF92FF92C8
:102100001F93CF93DF93FC016281738110E0161659
:102110001706DCF4EC01148661307105E9F06250B9
:1021200071090E9430077C01FC0181819281FC01D0
:1021300010810E942019F70112821182FF82EE8223
:102140008A819B8101979B838A83812FDF91CF9125
:102150001F91FF90EF90089584819581FC0110817B
:102160000E9420191D821C821F821E821B821A82DD
:10217000ECCF1F93CF93DF9377FD3EC0DC01129627
:102180002D913C91139762177307B4F56115710592
:1021900049F4ED91FC910288F389E02DDF91CF9114
:1021A0001F910994215031092617370731F4ED9119
:1021B000FC910088F189E02DF1CFEC0161507109AB
:1021C0000E943007DC011196ED91FC91129710816D
:1021D0002181328112963C932E931197CF010E9458
:1021E00020198A819B8101979B838A831C86812F7A
:1021F000DF91CF911F91089510E0F9CFCF93DF9336
:10220000EC0180E191E0998388838C819D81009726
:1022100041F0FC01218132813D832C830E942019F1
:10222000F4CFDF91CF910895CF93DF93EC010E941B
:10223000FE10CE01DF91CF910C9420191F920F92C6
:102240000FB60F9211242F933F934F935F936F9389
:102250007F938F939F93AF93BF93EF93FF9387ECFD
:1022600091E00E94B301FF91EF91BF91AF919F91D7
:102270008F917F916F915F914F913F912F910F902F
:102280000FBE0F901F9018951F920F920FB60F92CE
:1022900011242F938F939F93EF93FF93E091D70196
:1022A000F091D8018081E091DD01F091DE0182FDA5
:1022B0001BC090818091E0018F5F8F732091E101BD
:1022C000821741F0E091E001F0E0E953FE4F958F75
:1022D0008093E001FF91EF919F918F912F910F904B
:1022E0000FBE0F901F9018958081F4CF1F920F9210
:1022F0000FB60F9211242F933F938F939F93AF9319
:10230000BF938091B5019091B601A091B701B091B2
:10231000B8013091B40123E0230F2D3758F5019611
:10232000A11DB11D2093B4018093B5019093B60116
:10233000A093B701B093B8018091B9019091BA010F
:10234000A091BB01B091BC010196A11DB11D80936C
:10235000B9019093BA01A093BB01B093BC01BF91A6
:10236000AF919F918F913F912F910F900FBE0F9042
:102370001F90189526E8230F0296A11DB11DD2CFFC
:10238000E7ECF1E01382128288EE93E0A0E0B0E087
:1023900084839583A683B7838AE691E091838083C3
:1023A00085EC90E09587848784EC90E0978786871A
:1023B00080EC90E0918B808B81EC90E0938B828B12
:1023C00082EC90E0958B848B86EC90E0978B868BEB
:1023D000118E128E138E148EE4E6F2E016821782AE
:1023E0001086118612861386148615861686178621
:1023F000108A118A128A138A148A158A0895CF9333
:10240000DF93CDB7DEB76A970FB6F894DEBF0FBE85
:10241000CDBF789484B5826084BD84B5816084BD6D
:1024200085B5826085BD85B5816085BD80916E0072
:10243000816080936E0010928100809181008260A3
:1024400080938100809181008160809381008091E0
:1024500080008160809380008091B10084608093CF
:10246000B1008091B00081608093B00080917A00CB
:10247000846080937A0080917A00826080937A00F1
:1024800080917A00816080937A0080917A008068E0
:1024900080937A001092C1001092A6021092A702B7
:1024A0001092A8021092A90210926602109267027E
:1024B00010926802109269020E94E6026B017C0190
:1024C0004B015C0128EB820E2BE0921EA11CB11C7B
:1024D0000E94E6026C157D058E059F0528F0861684
:1024E0009706A806B906A0F768EE73E080E090E0D2
:1024F0000E94B3020E940C010E94E60260936602F1
:1025000070936702809368029093690288E791E074
:102510000E943B090E94E6026B017C014B015C01B9
:102520003AE0830E911CA11CB11C0E94E6026C15BE
:102530007D058E059F0528F086169706A806B90624
:10254000A0F781E080937A020E94E602609366021F
:1025500070936702809368029093690289E891E022
:102560000E943B098DE090E00E9484188C0140E1BC
:10257000C42E41E0D42EDC011196DC92CE92159649
:102580001C921E92149717961C921E9216971396E1
:102590001C921E92129719961C921E9218971B96C7
:1025A0001C921E921A971C961C928DE090E00E943D
:1025B00084187C01FC01D182C082158214821782AA
:1025C0001682138212821186108613861286148652
:1025D0006AE0C8010E945C0ED701ED91FC91008475
:1025E000F185E02D62E0C7010995D12CAD2CB12C0D
:1025F000D801ED91FC910480F581E02DC801099589
:10260000A816B9064CF5D801ED91FC910488F5891E
:10261000E02DB501C801099590E0FC01E255FE4F9F
:10262000249186569E4FFC018491882399F090E076
:10263000880F991FFC01EA57FE4FA591B491FC0148
:10264000E458FE4F859194918FB7F894EC912E2B1E
:102650002C938FBFD394CACF80E191E09A83898372
:10266000D80112962D913C9113973C832B8314969D
:102670002D913C9115973E832D8316962D913C917B
:10268000179738872F8318962D913C9119973A8781
:1026900029871A962D913C911B973C872B871C9676
:1026A0002C912D879F878E87F70182819381998B4B
:1026B000888B848195819B8B8A8B868197819D8B6A
:1026C0008C8B808591859F8B8E8B82859385998F4E
:1026D000888F84858A8F8DE090E00E9484188C0119
:1026E000AE01425F5F4FBE016F5F7F4F0E94DA090C
:1026F0001093C2010093C101CE010E960E94FE10FC
:10270000CE0101960E94FE100E940C0192E0292E3B
:10271000312C24EF822E99249394A12CB12C0E9469
:10272000E602672B682B692B09F4EFC00E94E602D2
:102730000091C3011091C4012091C5013091C601DF
:10274000601771078207930708F451C10091C30114
:102750001091C4012091C5013091C6016B017C012B
:10276000C01AD10AE20AF30A97018601083E134013
:102770002105310508F4D1C06093C3017093C401F1
:102780008093C5019093C601809272029092730269
:10279000A0927402B09275021092760210927702A3
:1027A000109278021092790280916A0290916B02E5
:1027B000A0916C02B0916D0280936E0290936F02B3
:1027C000A0937002B09371020E94E60260936A02C5
:1027D00070936B0280936C0290936D0287EC91E092
:1027E0000E948501843611F40E948C090E94E60241
:1027F0006093660270936702809368029093690207
:102800000E94E6026B017C0180E991E00E943B0995
:102810004AE061E070E080E090E00E94480987E9CA
:1028200091E00E943B094AE0C701B6010E944809B5
:1028300089E991E00E943B0980916A0290916B02C4
:10284000A0916C02B0916D02A7019601281B390B73
:102850004A0B5B0BCA01B9014AE00E94480989E9A9
:1028600091E00E943B0960916A0270916B02809135
:102870006C0290916D0200916E0210916F02209196
:10288000700230917102601B710B820B930B4AE056
:102890000E9448098BE991E00E943B090E94E602F0
:1028A0004AE00E9448098DE991E00E943B0984EAD0
:1028B00091E00E943B090E94E6022B013C017C0151
:1028C0006B0132E0C30ED11CE11CF11C0E94E60238
:1028D000641575058605970528F0C616D706E8061F
:1028E000F906A0F787EC91E00E948501843611F487
:1028F0000E948C090E94E60260936A0270936B0248
:1029000080936C0290936D0208C00E94E6026230D0
:1029100071058105910508F009CF0091C101109161
:10292000C201C8010E943A086B017C01AC019B0105
:102930000E945118882309F463C087EA91E00E943D
:102940003B0984EA91E00E943B09D12CED2CF12C4B
:10295000D80115968D919C91DC01ED91FC9104803C
:10296000F581E02D0995E816F9060CF00CC1F80187
:1029700087819085DC01ED91FC910488F589E02D3B
:10298000B7010995FC0180859185039771F5C80110
:102990000E943A08D80119962D913D914D915C9174
:1029A0001C970E944C1887FDBDC0F8018581968157
:1029B000DC01ED91FC910488F589E02DB7010995C2
:1029C0007C0161E0FC0180810E944202D7011296E5
:1029D0003C922E9211970E94E6026093BD01709383
:1029E000BE018093BF019093C001D394AFCF609399
:1029F000C3017093C4018093C5019093C601A6CE14
:102A000026013701E89477F82FEF3FEF4FE75FE7B4
:102A1000C301B2010E94511881110DC02FEF3FEF89
:102A20004FE75FE7C301B2010E94F81518161CF4C6
:102A30008BEA91E084CF2FEF3FEF4FE75FE4C701D0
:102A4000B6010E944C1818161CF48FEA91E077CF5B
:102A50002FEF3FEF4FE75FECC701B6010E94F8157B
:102A600087FDF3CF20E030E0A901C701B6010E9445
:102A7000F81587FF09C06DE287EC91E00E94D5014F
:102A8000F7FAF094F7F8F0942AE037ED43EA5BE3C5
:102A9000C701B6010E943F172B013C010E941D187F
:102AA0006B017C010E94FD159B01AC01C301B201C9
:102AB0000E943E172B013C014AE0C701B6010E946B
:102AC00048096EE287EC91E00E94D50120E030E0F9
:102AD00040E251E4C301B2010E945E162B013C01A9
:102AE0000E941D186B01F12CE12C4AE0C701B601D0
:102AF0000E944809C701B6010E94FD159B01AC0167
:102B0000C301B2010E943E1720E030E040E251E4F0
:102B10000E945E160E941D1890E080E04AE00E942C
:102B200048090FCF0E94E6024090BD015090BE01BF
:102B30006090BF017090C0016419750986099709FA
:102B4000F8014180528063807480641575058605A4
:102B5000970508F44ACF85819681DC01ED91FC91BF
:102B60000488F589E02DB70109957C0160E0FC013E
:102B700080810E944202E1E0F0E0D7011296FC93CE
:102B8000EE93119732CF80E0C82E80E0D82ECD286A
:102B900009F4C5CD0E949F01882309F4C0CD0E948D
:102BA0000000BDCDFC0188279927E89421912032AF
:102BB000E9F3293010F02E30C8F32B3241F02D32DA
:102BC00039F4689404C00E94F015820F911D219180
:102BD00020532A30C0F31EF4909581959F4F08959D
:102BE0007AE0979F902D879F802D910D1124089555
:102BF0000E943A1608F481E00895E89409C097FB12
:102C00003EF490958095709561957F4F8F4F9F4FC3
:102C10009923A9F0F92F96E9BB279395F695879507
:102C200077956795B795F111F8CFFAF4BB0F11F4CA
:102C300060FF1BC06F5F7F4F8F4F9F4F16C0882371
:102C400011F096E911C0772321F09EE8872F762FA7
:102C500005C0662371F096E8862F70E060E02AF0E8
:102C60009A95660F771F881FDAF7880F96958795D4
:102C700097F90895990F0008550FAA0BE0E8FEEFA9
:102C800016161706E807F907C0F012161306E40730
:102C9000F50798F0621B730B840B950B39F40A2629
:102CA00061F0232B242B252B21F408950A2609F407
:102CB000A140A6958FEF811D811D08950E94711678
:102CC0000C94E2160E94D41638F00E94DB1620F015
:102CD000952311F00C94CB160C94D11611240C945E
:102CE00016170E94F31670F3959FC1F3950F50E0ED
:102CF000551F629FF001729FBB27F00DB11D639FAE
:102D0000AA27F00DB11DAA1F649F6627B00DA11D53
:102D1000661F829F2227B00DA11D621F739FB00DF9
:102D2000A11D621F839FA00D611D221F749F332769
:102D3000A00D611D231F849F600D211D822F762F02
:102D40006A2F11249F5750409AF0F1F088234AF0DF
:102D5000EE0FFF1FBB1F661F771F881F915050404B
:102D6000A9F79E3F510580F00C94CB160C941617D2
:102D70005F3FE4F3983ED4F3869577956795B795D2
:102D8000F795E7959F5FC1F7FE2B880F911D9695EC
:102D9000879597F9089597F99F6780E870E060E05C
:102DA00008959FEF80EC089500240A9416161706E4
:102DB00018060906089500240A941216130614062C
:102DC00005060895092E0394000C11F4882352F08F
:102DD000BB0F40F4BF2B11F460FF04C06F5F7F4F47
:102DE0008F4F9F4F089557FD9058440F551F59F02E
:102DF0005F3F71F04795880F97FB991F61F09F3FE8
:102E000079F087950895121613061406551FF2CF10
:102E10004695F1DF08C0161617061806991FF1CF60
:102E200086957105610508940895E894BB27662787
:102E30007727CB0197F90895A1E21A2EAA1BBB1B95
:102E4000FD010DC0AA1FBB1FEE1FFF1FA217B30776
:102E5000E407F50720F0A21BB30BE40BF50B661F8C
:102E6000771F881F991F1A9469F760957095809550
:102E700090959B01AC01BD01CF0108955058BB272F
:102E8000AA270E9456170C94E2160E94D41638F016
:102E90000E94DB1620F039F49F3F19F426F40C94BD
:102EA000D1160EF4E095E7FB0C94CB16E92F0E94A7
:102EB000F31658F3BA17620773078407950720F0D3
:102EC00079F4A6F50C9415170EF4E0950B2EBA2F95
:102ED000A02D0B01B90190010C01CA01A001112420
:102EE000FF27591B99F0593F50F4503E68F11A16CC
:102EF000F040A22F232F342F4427585FF3CF46955D
:102F000037952795A795F0405395C9F77EF41F167E
:102F1000BA0B620B730B840BBAF09150A1F0FF0F48
:102F2000BB1F661F771F881FC2F70EC0BA0F621F34
:102F3000731F841F48F4879577956795B795F79524
:102F40009E3F08F0B0CF9395880F08F09927EE0FB9
:102F50009795879508950E94BF170C94E2160E94DA
:102F6000DB1658F00E94D41640F029F45F3F29F098
:102F70000C94CB1651110C9416170C94D1160E9478
:102F8000F31668F39923B1F3552391F3951B550B71
:102F9000BB27AA2762177307840738F09F5F5F4F2C
:102FA000220F331F441FAA1FA9F335D00E2E3AF06B
:102FB000E0E832D091505040E695001CCAF72BD083
:102FC000FE2F29D0660F771F881FBB1F26173707D4
:102FD0004807AB07B0E809F0BB0B802DBF01FF2706
:102FE00093585F4F3AF09E3F510578F00C94CB1602
:102FF0000C9416175F3FE4F3983ED4F386957795CB
:103000006795B795F7959F5FC9F7880F911D9695BE
:10301000879597F90895E1E0660F771F881FBB1F1A
:10302000621773078407BA0720F0621B730B840BC7
:10303000BA0BEE1F88F7E09508950E94FB1688F002
:103040009F5798F0B92F9927B751B0F0E1F0660F6C
:10305000771F881F991F1AF0BA95C9F714C0B130AD
:1030600091F00E941517B1E008950C941517672F81
:10307000782F8827B85F39F0B93FCCF386957795DC
:103080006795B395D9F73EF49095809570956195C5
:103090007F4F8F4F9F4F08950E943A1608F48FEF8D
:1030A00008950E943A16880B990B089597FB072EF6
:1030B00016F4009407D077FD09D00E946A1807FC27
:1030C00005D03EF4909581959F4F08957095619538
:1030D0007F4F0895AA1BBB1B51E107C0AA1FBB1F4E
:1030E000A617B70710F0A61BB70B881F991F5A9594
:1030F000A9F780959095BC01CD010895EE0FFF1FB3
:103100000590F491E02D09940F931F93CF93DF93D3
:103110008230910510F482E090E0E091AC02F091F1
:10312000AD0230E020E0B0E0A0E0309799F4211546
:10313000310509F44AC0281B390B24303105D8F574
:103140008A819B816115710589F1FB0193838283DB
:10315000FE0111C040815181028113814817590736
:10316000E0F04817590799F4109761F012960C9304
:10317000129713961C933296CF01DF91CF911F9136
:103180000F9108950093AC021093AD02F4CF211576
:10319000310551F04217530738F0A901DB019A01BC
:1031A000BD01DF01F801C1CFEF01F9CF9093AD026E
:1031B0008093AC02CDCFFE01E20FF31F8193919378
:1031C0002250310939832883D7CF2091AA02309128
:1031D000AB02232B41F42091020130910301309383
:1031E000AB022093AA022091000130910101211528
:1031F000310541F42DB73EB74091040150910501CE
:10320000241B350BE091AA02F091AB02E217F30701
:10321000A0F42E1B3F0B2817390778F0AC014E5F46
:103220005F4F2417350748F04E0F5F1F5093AB02D6
:103230004093AA02819391939FCFF0E0E0E09CCF6E
:10324000CF93DF930097E9F0FC013297138212824B
:10325000A091AC02B091AD02ED0130E020E01097FA
:10326000A1F420813181820F931F2091AA02309115
:10327000AB022817390709F061C0F093AB02E09365
:10328000AA02DF91CF910895EA01CE17DF07E8F592
:103290004A815B819E0141155105B1F7E901FB832C
:1032A000EA8349915991C40FD51FEC17FD0761F4CA
:1032B000808191810296840F951FE901998388830B
:1032C000828193819B838A83F0E0E0E012968D9166
:1032D0009C9113970097B9F52D913C911197CD01D1
:1032E0000296820F931F2091AA023091AB022817F9
:1032F000390739F6309751F51092AD021092AC02B1
:10330000B093AB02A093AA02BCCFD383C283408107
:103310005181840F951FC817D90761F44E5F5F4F25
:1033200088819981480F591F518340838A819B81ED
:10333000938382832115310509F0B0CFF093AD025C
:10334000E093AC029ECFFD01DC01C0CF138212825C
:10335000D7CFF894FFCF0000AE0280005E00BC0023
:10336000770100000000FE1014115406050E5C0EDB
:10337000D30D6707B9107E1049107A071807890620
:103380000000000029103F105406260D830DF00C9C
:103390002806DF0F9F0F650F6306D9054A05000059
:1033A0000000450F5B0F5406930CAB0D5D0C3E0601
:1033B000810E050FCB0E58063205A3040000000055
:1033C000D501340162012202930171018501564D3C
:1033D0004450565F317C315F564D4450560A00567A
:1033E0004D4450525F00564D4450455F003A323ACA
:1033F000007C005F564D445045000D0A006E616E22
:0A34000000696E66006F766600003A
:107E0000112484B714BE81FFF0D085E080938100F7
:107E100082E08093C00088E18093C10086E0809377
:107E2000C20080E18093C4008EE0C9D0259A86E02C
:107E300020E33CEF91E0309385002093840096BBD3
:107E4000B09BFECF1D9AA8958150A9F7CC24DD24C4
:107E500088248394B5E0AB2EA1E19A2EF3E0BF2EE7
:107E6000A2D0813461F49FD0082FAFD0023811F036
:107E7000013811F484E001C083E08DD089C08234E0
:107E800011F484E103C0853419F485E0A6D080C0E4
:107E9000853579F488D0E82EFF2485D0082F10E0AE
:107EA000102F00270E291F29000F111F8ED06801E7
:107EB0006FC0863521F484E090D080E0DECF843638
:107EC00009F040C070D06FD0082F6DD080E0C81688
:107ED00080E7D80618F4F601B7BEE895C0E0D1E017
:107EE00062D089930C17E1F7F0E0CF16F0E7DF06D8
:107EF00018F0F601B7BEE89568D007B600FCFDCFD4
:107F0000A601A0E0B1E02C9130E011968C91119780
:107F100090E0982F8827822B932B1296FA010C0160
:107F200087BEE89511244E5F5F4FF1E0A038BF0790
:107F300051F7F601A7BEE89507B600FCFDCF97BE46
:107F4000E89526C08437B1F42ED02DD0F82E2BD052
:107F50003CD0F601EF2C8F010F5F1F4F84911BD097
:107F6000EA94F801C1F70894C11CD11CFA94CF0C13
:107F7000D11C0EC0853739F428D08EE10CD085E9AC
:107F80000AD08FE07ACF813511F488E018D01DD067
:107F900080E101D065CF982F8091C00085FFFCCF94
:107FA0009093C60008958091C00087FFFCCF809118
:107FB000C00084FD01C0A8958091C6000895E0E648
:107FC000F0E098E1908380830895EDDF803219F02E
:107FD00088E0F5DFFFCF84E1DECF1F93182FE3DFCA
:107FE0001150E9F7F2DF1F91089580E0E8DFEE27F6
:047FF000FF270994CA
:027FFE00040479
:00000001FF
