:100000000C94E2000C940A010C940A010C940A016D
:100010000C940A010C940A010C940A010C940A0134
:100020000C940A010C940A010C940A010C940A0124
:100030000C940A010C940A010C940A010C940A0114
:100040000C94F4100C940A010C94C2100C949C10A3
:100050000C940A010C940A010C940A010C940A01F4
:100060000C940A010C940A01005EBCE2613FDD833E
:10007000C29C7E20A3FD1F419DC3217FFCA2401E88
:100080005F01E3BD3E6082DC237D9FC1421CFEA078
:10009000E1BF5D0380DE3C62BEE0025CDF81633D68
:1000A0007C22C09E1D43A1FF4618FAA427799BC558
:1000B00084DA3866E5BB5907DB856739BAE4065848
:1000C0001947A5FB7826C49A653BD987045AB8E638
:1000D000A7F91B45C6987A24F8A6441A99C7257B28
:1000E0003A6486D85B05E7B98CD2306EEDB3510F18
:1000F0004E10F2AC2F7193CD114FADF3702ECC9208
:10010000D38D6F31B2EC0E50AFF1134DCE90722CF7
:100110006D33D18F0C52B0EE326C8ED0530DEFB1E7
:10012000F0AE4C1291CF2D73CA947628ABF51749D7
:100130000856B4EA6937D58B5709EBB536688AD4C7
:1001400095CB2977F4AA4816E9B7550B88D6346AB7
:100150002B7597C94A14F6A8742AC896154BA9F7A7
:10016000B6E80A54D7896B35000000080002010088
:100170000003040700000000000000000000000071
:10018000250028002B0000000000240027002A0082
:1001900000000000230026002900040404040404D5
:1001A0000404020202020202030303030303010226
:1001B00004081020408001020408102001020408F5
:1001C00010200F1411241FBECFEFD8E0DEBFCDBF2B
:1001D00011E0A0E0B1E0EEEDFFE202C005900D926B
:1001E000A838B107D9F722E0A8E8B1E001C01D9214
:1001F000A833B207E1F710E0C2EED0E004C02197C7
:10020000FE010E94C216C13ED107C9F70E943E11ED
:100210000C94ED170C9400000895AF92BF92CF920A
:10022000DF92EF92FF920F931F93CF93DF936C01B6
:100230007B018B01040F151FEB015E01AE18BF0897
:10024000C017D10759F06991D601ED91FC91019049
:10025000F081E02DC6010995892B79F7C501DF9161
:10026000CF911F910F91FF90EF90DF90CF90BF90B3
:10027000AF900895FC01538D448D252F30E0842FDD
:1002800090E0821B930B541710F0CF9608950197BE
:100290000895FC01918D828D981761F0A28DAE0FAB
:1002A000BF2FB11D5D968C91928D9F5F9F73928F32
:1002B00090E008958FEF9FEF0895FC01918D828D5E
:1002C000981731F0828DE80FF11D858D90E008952B
:1002D0008FEF9FEF0895FC01918D228D892F90E083
:1002E000805C9F4F821B91098F739927089587E93E
:1002F00091E00E946B0121E0892B09F420E0822F1C
:10030000089580E090E0892B29F00E947701811107
:100310000C9400000895FC01A48DA80FB92FB11D05
:10032000A35ABF4F2C91848D90E001968F7399272B
:10033000848FA689B7892C93A089B1898C91837009
:1003400080648C93938D848D981306C00288F38902
:10035000E02D80818F7D80830895EF92FF920F932F
:100360001F93CF93DF93EC0181E0888F9B8D8C8D61
:1003700098131AC0E889F989808185FF15C09FB755
:10038000F894EE89FF896083E889F9898081837018
:10039000806480839FBF81E090E0DF91CF911F91C7
:1003A0000F91FF90EF900895F62E0B8D10E00F5FE8
:1003B0001F4F0F731127E02E8C8D8E110CC00FB6BE
:1003C00007FCFACFE889F989808185FFF5CFCE0156
:1003D0000E948B01F1CFEB8DEC0FFD2FF11DE35A45
:1003E000FF4FF0829FB7F8940B8FEA89FB898081D9
:1003F0008062CFCFCF93DF93EC01888D8823B9F053
:10040000AA89BB89E889F9898C9185FD03C080811F
:1004100086FD0DC00FB607FCF7CF8C9185FFF2CF9C
:10042000808185FFEDCFCE010E948B01E9CFDF9166
:10043000CF91089590E0FC01E859FE4F2491FC0112
:10044000E255FE4F3491FC01E656FE4FE491EE2357
:10045000C9F0222339F0233001F1A8F4213019F139
:10046000223029F1F0E0EE0FFF1FE458FE4FA59176
:10047000B4918FB7F894EC91611126C030953E236A
:100480003C938FBF08952730A9F02830C9F024305D
:1004900049F7809180008F7D03C0809180008F7725
:1004A00080938000DFCF84B58F7784BDDBCF84B5A8
:1004B0008F7DFBCF8091B0008F778093B000D2CF3B
:1004C0008091B0008F7DF9CF3E2BDACF3FB7F89403
:1004D0008091890190918A01A0918B01B0918C014A
:1004E00026B5A89B05C02F3F19F00196A11DB11D8F
:1004F0003FBFBA2FA92F982F8827BC01CD01620FCB
:10050000711D811D911D42E0660F771F881F991F85
:100510004A95D1F708958F929F92AF92BF92CF9252
:10052000DF92EF92FF926B017C010E9466024B0109
:100530005C01C114D104E104F104B9F00E94660227
:10054000681979098A099B09683E734081059105FC
:1005500080F321E0C21AD108E108F10888EE880E84
:1005600083E0981EA11CB11CE4CFFF90EF90DF90B8
:10057000CF90BF90AF909F908F900895DC0180E066
:10058000615038F0ED91E827F0E0E859FF4F849191
:10059000F7CF0895DC012C911196ED91FC91F89420
:1005A0008181822B81839281322F30959323928394
:1005B00087E090E00197F1F781818323818383E2D3
:1005C00090E00197F1F790817894EFECF0E03197AB
:1005D000F1F7922381E009F480E00895FC01908115
:1005E0000180F281E02D292F209560FF14C0F8943E
:1005F0008281822382838181892B8183A3E2B0E07F
:100600001197F1F78281982B9283789487ED90E08F
:100610000197F1F70895F894828182238283818182
:10062000892B8183AFEFB0E01197F1F78281982B8E
:10063000928378948FE090E0EBCFDF92EF92FF927D
:100640000F931F93CF93DF93EC01D62EE42E08E097
:1006500010E0FF24F39461E08D2D8F2109F460E018
:10066000CE010E94EE02FF0C01501109A1F7E1102A
:1006700010C0F894E981FA8191818881809589235D
:100680008183E981FA81928188818095892382839F
:100690007894DF91CF911F910F91FF90EF90DF90B1
:1006A0000895EF92FF920F931F93CF93DF938C01E6
:1006B0007B0140E065E50E941D03E70188E0E80E4C
:1006C000F11C699140E0C8010E941D03CE15DF05B1
:1006D000C1F7DF91CF911F910F91FF90EF90089597
:1006E000FC0190810180F281E02DF8948181292F15
:1006F00020958223818378943DE743E050E0315098
:1007000029F1DA011197F1F780818923C1F3F89477
:100710008281822382838181892B81837894ABE7D4
:10072000B7E01197F1F7F894818182238183A3E1E7
:10073000B1E01197F1F78081982381E009F080E022
:100740007894E3E6F6E03197F1F7089580E00895B4
:100750006F927F928F929F92AF92BF92CF92DF92D1
:10076000EF92FF920F931F93CF93DF93EC017B01E6
:100770008A018D819E810E947003811102C090E0E8
:1007800037C0B7018D819E810E94510340E06EEB1E
:100790008D819E810E941D037801680189E0C80E49
:1007A000D11CAD80BE8088E0882E912C712C6624EF
:1007B0006394C5010E94CA0281117628660CE1E0AB
:1007C0008E1A9108B1F7F70171927F01EC15FD05C2
:1007D00041F78D819E810E947003813081F668E02F
:1007E000C8010E94BE0291E0F80120852813C7CFFE
:1007F000892FDF91CF911F910F91FF90EF90DF90A4
:10080000CF90BF90AF909F908F907F906F90089502
:10081000CF93DF93CDB7DEB729970FB6F894DEBF3D
:100820000FBECDBFFB012081203199F0AE014F5F9B
:100830005F4F0E94A803882331F08D818F33A9F088
:1008400020F48F31A1F080E007C08F3521F08F3781
:10085000D1F78CE001C08BE029960FB6F894DEBF8B
:100860000FBECDBFDF91CF9108958AE0F5CF89E02B
:10087000F3CF0F931F93CF93DF938B01EC016A812A
:100880007B816115710551F0CE01F80109951816AB
:10089000190624F00A80DB81C02DF1CFCE01DF9153
:1008A000CF911F910F9108950F931F93CF93DF93D3
:1008B0008B01EC016A817B816115710551F0CE01DC
:1008C000F80109951816190624F00A80DB81C02D5D
:1008D000F1CFCE01DF91CF911F910F9108954F92EB
:1008E0005F926F927F928F929F92AF92BF92CF92C0
:1008F000DF92EF92FF920F931F93CF93DF93FC0150
:100900002281338122303105F4F05B016C012C012E
:10091000F4E04F0E511C7201F701C081D181209784
:10092000D1F3B501CE010E9439044C01FC010281D2
:10093000138101151105C1F4E414F50461F7F60102
:10094000978386831486DF91CF911F910F91FF903B
:10095000EF90DF90CF90BF90AF909F908F907F905F
:100960006F905F904F900895B501C8010E943904BF
:10097000FC0162807380F40113821282FC011382F5
:100980001282B801CE01F5010995F7011816190672
:100990006CF0D183C0837E01F2E0EF0EF11C8A81FE
:1009A0009B81009781F41B830A831CC01183008301
:1009B0007801F2E0EF0EF11CF8018281938100973B
:1009C000D1F08C01CE01EC01DCCFEC018A819B815E
:1009D0000097D9F77B826A827E01F2E0EF0EF11C6C
:1009E0009BCF8C01F801828193810097D1F77382AC
:1009F00062827801F2CFD383C283E8CFCF93DF93B3
:100A0000EC01E881F9810480F581E02DCE010995A2
:100A10001816190644F4E881F9810288F389E02D5B
:100A2000CE010995EECFDF91CF9108954F925F925D
:100A30006F927F928F929F92AF92BF92CF92DF92EE
:100A4000EF92FF920F931F93CF93DF93FC012281CC
:100A5000338122303105F4F05B016C012C01F4E0AC
:100A60004F0E511C7201F701C081D1812097D1F343
:100A7000B501CE010E9454044C01FC010281138196
:100A800001151105C1F4E414F50461F7F60197832B
:100A900086831486DF91CF911F910F91FF90EF9085
:100AA000DF90CF90BF90AF909F908F907F906F908E
:100AB0005F904F900895B501C8010E945404FC0155
:100AC00062807380F40113821282FC01138212820D
:100AD000B801CE01F5010995F701181619066CF059
:100AE000D183C0837E01F2E0EF0EF11C8A819B81ED
:100AF000009781F41B830A831CC011830083780153
:100B0000F2E0EF0EF11CF801828193810097D1F0A1
:100B10008C01CE01EC01DCCFEC018A819B81009736
:100B2000D9F77B826A827E01F2E0EF0EF11C9BCF47
:100B30008C01F801828193810097D1F773826282E0
:100B40007801F2CFD383C283E8CFCF93DF93EC0158
:100B5000E881F9810480F581E02DCE010995181610
:100B6000190644F4E881F9810288F389E02DCE0169
:100B70000995EECFDF91CF910895DC011496ED91A8
:100B8000FC9115971C968C911C978823B1F01A96AE
:100B90002D913C911B97621773077CF01896ED918D
:100BA000FC911997261737075CF43097C1F0028043
:100BB000F381E02D2F5F3F4FF5CF30E020E0F2CF03
:100BC0002617370771F481E01C968C931C971B96AF
:100BD0003C932E931A971996FC93EE931897CF0196
:100BE0000895F0E0E0E0FBCFCF93DF9377FD10C0F6
:100BF000FC01228133816217730754F4EA010E94D9
:100C0000BD05FC01D183C08381E0DF91CF910895C0
:100C100080E0FBCFCF93DF9377FD10C0FC012281F2
:100C200033816217730754F4EA010E94BD05FC0189
:100C3000D183C08381E0DF91CF91089580E0FBCF25
:100C4000FC018281938108950E94BD05009721F0E7
:100C5000FC0180819181089590E080E008950E94D8
:100C6000BD05009721F0FC0180819181089590E0FD
:100C700080E008950F931F93CF93DF938B01EC01D6
:100C800069817A816115710551F0CE01F8010995EC
:100C90001816190624F00980DA81C02DF1CFCE0193
:100CA000DF91CF911F910F9108954F925F926F92B4
:100CB0007F928F929F92AF92BF92CF92DF92EF92EC
:100CC000FF920F931F93CF93DF93FC012281338117
:100CD00022303105F4F05B016C012C01F4E04F0E81
:100CE000511C7201F701C081D1812097D1F3B50168
:100CF000CE010E943A064C01FC01018112810115CE
:100D00001105C1F4E414F50461F7F60197838683B5
:100D10001486DF91CF911F910F91FF90EF90DF909C
:100D2000CF90BF90AF909F908F907F906F905F908B
:100D30004F900895B501C8010E943A06FC016180F8
:100D40007280F40112821182FC0112821182B801B8
:100D5000CE01F5010995F701181619066CF0D1833B
:100D6000C0837E01FFEFEF1AFF0A89819A81009705
:100D700081F41A8309831CC0118300837801FFEF7B
:100D8000EF1AFF0AF801818192810097D1F08C015E
:100D9000CE01EC01DCCFEC0189819A810097D9F773
:100DA0007A8269827E01FFEFEF1AFF0A9BCF8C01E6
:100DB000F801818192810097D1F772826182780176
:100DC000F2CFD283C183E8CFCF93DF93EC01E881E8
:100DD000F9810480F581E02DCE01099518161906D8
:100DE00044F4E881F9810288F389E02DCE01099568
:100DF000EECFDF91CF910895DC011496ED91FC9137
:100E000015971C968C911C978823B1F01A962D91FA
:100E10003C911B97621773077CF01896ED91FC913B
:100E20001997261737075CF43097C1F00180F281DB
:100E3000E02D2F5F3F4FF5CF30E020E0F2CF2617B7
:100E4000370771F481E01C968C931C971B963C939A
:100E50002E931A971996FC93EE931897CF01089545
:100E6000F0E0E0E0FBCFCF9377FD0EC0FC012281E4
:100E700033816217730744F4C42F0E94FC06FC01FF
:100E8000C08381E0CF91089580E0FCCF0E94FC06F2
:100E9000009719F0FC018081089580E00895FC011D
:100EA00001900020E9F73197AF01481B590BBC01B5
:100EB00087E991E00C940D018F929F92AF92BF92BF
:100EC0000F931F93CF93DF93CDB7DEB7A1970FB6E4
:100ED000F894DEBF0FBECDBF19A2423008F44AE03D
:100EE0008E010F5D1F4F842E912CB12CA12CA501DA
:100EF00094010E948C16E62FB901CA01EA30F4F47D
:100F0000E05DD801EE938D01232B242B252B79F75F
:100F100090E080E0109719F0CD010E944F07A19654
:100F20000FB6F894DEBF0FBECDBFDF91CF911F91FA
:100F30000F91BF90AF909F908F900895E95CE1CFA3
:100F4000BF92CF92DF92EF92FF920F931F93CF93B6
:100F5000DF93EC01B62EC72EED84E11004C00E9491
:100F6000700381110EC01B861D861C8680E0DF91F8
:100F7000CF911F910F91FF90EF90DF90CF90BF9096
:100F8000089540E060EFCE010E941D03D12C01E0E6
:100F900011E0CE010E94CA02F82ECE010E94CA02C0
:100FA00091E0F91218C0813099F51134E0F2EB8626
:100FB000E11002C081E08D878B818823A1F2239606
:100FC000EB2DFC2DCF01089629912193E817F90705
:100FD000D9F781E0CCCFED2DF0E0F8120FC08B8572
:100FE0001817A0F4DE01AE0FBF1F13968C9180235B
:100FF00079F4F12C193008F41C87E12EEC0FFD1F59
:101000008381902F9095892383830AC08113F1CF28
:10101000FE01ED0DF11D8381802B8383FF24F3946A
:101020006F2DCE010E94EE021F5F000F11F4D394CA
:1010300001E087E08D1508F0ACCFB7CFEF92FF92BB
:101040000F931F93CF93DF937C018B01D42FDC018F
:101050001596ED91FC9113861586148612861186DD
:10106000108617821682158214821382C0E0B8019E
:10107000F701858196810E94A007882329F0DC175B
:1010800059F0CF5FDC1798F780E0DF91CF911F9187
:101090000F91FF90EF90089567E0C8010E94BE0293
:1010A000D80117969C918913ECCF81E0EECF4F9237
:1010B0005F926F927F92AF92BF92CF92DF92EF9248
:1010C000FF920F931F93CF93DF93CDB7DEB7619756
:1010D0000FB6F894DEBF0FBECDBF6C01E12CF12C32
:1010E000412C512C32010E2D10E0D60117968D9116
:1010F0009C91DC01ED91FC910480F581E02D099536
:10110000081719070CF0B3C0F60187819085DC0140
:10111000ED91FC910488F589E02DB8010995FC0159
:1011200080859185039709F056C0D60117968D9159
:101130009C91DC01ED91FC910488F589E02DB801CA
:1011400009955C01FC0104811581D80115968D91EA
:101150009C910E94700340E06CECF80185819681BF
:101160000E941D03D8014C9164E415968D919C91C9
:101170000E941D03F8018281882399F0E181E950E2
:101180006EEE72E0E33038F4F0E0EE0FFF1FEA5F3E
:10119000FE4F60817181072E000C880B990B0E9415
:1011A0008B02D50114960D911C91159711964C91B7
:1011B000BE01665F7F4FC8010E941E0881110DC0ED
:1011C00020E030E04EEF52ECC301B2010E943D142A
:1011D0002B013C01F394E39486CFAE014F5F5F4F48
:1011E000BE01665F7F4FC8010E94A803882341F3B8
:1011F0006A8170E0762F6627770F770F770F298146
:10120000B8E02B9F90011124262B372B8A85803143
:10121000D1F4688570E08F81FB01E81BF109CF01F3
:101220009695982F8827979587950E947816CB01D9
:101230004097B90153E0660F771F5A95E1F7607840
:101240009C01260F371F2138F4EE3F070CF4B8CF6E
:10125000B901330F880B990B0E94511520E030E043
:1012600040E05CE30E9406169B01AC01ADCF6F2D00
:1012700070E090E080E00E9451159B01AC01C30139
:10128000B2010E94AE1461960FB6F894DEBF0FBE95
:10129000CDBFDF91CF911F910F91FF90EF90DF9025
:1012A000CF90BF90AF907F906F905F904F900895D8
:1012B0002F923F924F925F926F927F928F929F9266
:1012C000AF92BF92CF92DF92EF92FF920F931F9354
:1012D000CF93DF93CDB7DEB761970FB6F894DEBF3B
:1012E0000FBECDBF6C018B015A018CE0D6018C93EF
:1012F00080E395E7A0E0B0E0F60181839283A383C9
:10130000B4838DE090E00E94C816FC018EE591E068
:10131000918380831582148217821682138212822F
:1013200011861086138612861486D6011696FC93B3
:10133000EE9315978DE090E00E94C816FC0180E4C2
:1013400091E0918380831582148217821682138222
:10135000128211861086138612861486D60118967C
:10136000FC93EE93179780E090E0A8EDB1E4F601CE
:1013700081879287A387B487F12C6F2D70E0D80105
:1013800012968D919C9168177907D4F4C8010E9438
:101390004607E82E83E090E00E94C816BC01FC01DD
:1013A000E08212821182D60115968D919C91DC010A
:1013B000ED91FC910084F185E02D0995F394DDCF4A
:1013C000712C7CE0472E71E0572E66246394EFE386
:1013D0002E2E672D70E0F5018281938168177907C1
:1013E0000CF0D0C1C5010E944607182F8AE090E09A
:1013F0000E94C8167C01DC011C9311967C928EE041
:1014000090E00E94C8164C01812F90E0AC0142553B
:101410005E4FFA01049186569E4FFC0124912223CF
:10142000C1F030E0220F331FF901EA57FE4FA591BA
:10143000B491F901E458FE4F659174913FB7F89467
:101440002C91009520232C93DB012C9102230C93EB
:101450003FBFFA014491D4014C93FC018491E82FE1
:10146000F0E0EE0FFF1FE057FE4F8591949112962A
:101470009C938E9311971B961C921B971D961C9202
:101480001D971C961C92F7019382828283E190E063
:101490000E94C8168C01DC0152965C924E925197C4
:1014A00016969C928E92159714961C9214971C92E5
:1014B000E9E01196EC93119712966C92129713969D
:1014C0006C92D70115969C938E931497F6013080F9
:1014D000D4011A961C921A9719961C92199718966D
:1014E0001C92189717961C92179716961C9216978F
:1014F00015961C92159714961C92149713961C928D
:10150000BE016F5F7F4FF801858196810E94A00721
:10151000882309F450C067E0CE0101960E94BE0204
:1015200098858913EDCFD8018C91811125C015962E
:101530008D919C910E947003BE016F5F7F4FF801F7
:10154000858196810E94510340E064EBD801159695
:101550008D919C910E941D03F801858196810E94C6
:10156000CA02982ED80115968D919C910E94700305
:10157000911002C0F8016082D80111969C90BE01C2
:101580006F5F7F4FC8010E940804891568F4F80155
:101590008181D80111968C93119714968C91149790
:1015A0008F5F14968C93ACCFBE016F5F7F4FC801E5
:1015B0000E940804EECFF701668177814181848122
:1015C00095810E941E08D70114960D911C911597C4
:1015D00016968D909C90BCE0B31520F59CE0392EBA
:1015E000B401C8010E940804381609F484C0AE0191
:1015F0004F5F5F4FB401C8010E94A803882309F41C
:101600007AC0D4018C91803109F475C0BBE03B16DF
:1016100009F486C0ECE03E1659F0FAE03F1283C0B0
:101620002D8208C0E9E03E16D8F689E0382ED8CFE2
:101630008FE78D83F801858196810E947003B40144
:10164000D80115968D919C910E94510340E06EE463
:10165000F801858196810E941D0340E06B81D801CD
:1016600015968D919C910E941D0340E06C81F801BC
:10167000858196810E941D03D4018C91803139F0BF
:1016800040E06D81F801858196810E941D03D8019B
:1016900015968D919C910E947003B401F80185818B
:1016A00096810E945103D8014C9168E415968D9162
:1016B0009C910E941D0364E170E080E090E00E9434
:1016C0008B02F8018081882331F06AE070E080E0CD
:1016D00090E00E948B02D80115968D919C910E94FA
:1016E0007003F8018181831508F4832D3816F0F01A
:1016F000D80111968C93E3E0F0E0D7011996FC93A2
:10170000EE931897D60117968D919C91DC01ED917F
:10171000FC910084F185E02DB7010995739459CEB1
:101720009FE59D8387CFAFE1AD8384CFF801318200
:10173000912C812CD80114968C9188151904D9F21A
:10174000D4F2482DBE01665F7F4FC8010E941E087B
:10175000F8013180BE01665F7F4FC8010E94080416
:10176000831548F4D80111968C91F8018183FFEF1D
:101770008F1A9F0ADFCFBE01665F7F4FC8010E94AC
:101780000804F3CF61960FB6F894DEBF0FBECDBF4D
:10179000DF91CF911F910F91FF90EF90DF90CF904D
:1017A000BF90AF909F908F907F906F905F904F9081
:1017B0003F902F900895EF92FF920F931F93CF9336
:1017C000DF93DC0112960D911C9113970115110501
:1017D00061F4ED91FC910084F185E02DDF91CF91D2
:1017E0001F910F91FF90EF9009947B01EC0184E031
:1017F00090E00E94C8162C813D81FC013383228336
:10180000F182E0829D838C830F5F1F4F1B830A83CD
:101810001C8681E0DF91CF911F910F91FF90EF9097
:101820000895CF92DF92EF92FF920F931F93CF9381
:10183000DF93EB01BA01DC0112964D915C91139795
:10184000C417D50774F0ED91FC910084F185E02D6B
:10185000DF91CF911F910F91FF90EF90DF90CF908C
:101860000994209731F4ED91FC910284F385E02DE9
:10187000EFCF8B017C0184E090E00E94C8166C01E0
:10188000FC011182108213821282BE016150710923
:10189000C7010E94BD05D60111961C930E93FC0151
:1018A0002281338113963C932E931297D382C28266
:1018B000D70112968D919C911397019613969C9344
:1018C0008E9312971C961C9281E0DF91CF911F910D
:1018D0000F91FF90EF90DF90CF900895EF92FF92DD
:1018E0000F931F93CF93DF93DC0112960D911C9100
:1018F00013970115110561F4ED91FC910084F185B8
:10190000E02DDF91CF911F910F91FF90EF900994FF
:101910007B01EC0184E090E00E94C8162C813D819F
:10192000FC0133832283F182E0829D838C830F5FED
:101930001F4F1B830A831C8681E0DF91CF911F918B
:101940000F91FF90EF900895CF92DF92EF92FF9268
:101950000F931F93CF93DF93EB01BA01DC01129633
:101960004D915C911397C417D50774F0ED91FC91DC
:101970000084F185E02DDF91CF911F910F91FF90B1
:10198000EF90DF90CF900994209731F4ED91FC9186
:101990000284F385E02DEFCF8B017C0184E090E0A1
:1019A0000E94C8166C01FC011182108213821282FF
:1019B000BE0161507109C7010E94BD05D601119693
:1019C0001C930E93FC012281338113963C932E933A
:1019D0001297D382C282D70112968D919C91139750
:1019E000019613969C938E9312971C961C9281E0FD
:1019F000DF91CF911F910F91FF90EF90DF90CF90EB
:101A000008950F931F93CF93DF93EC018B0184E034
:101A100090E00E94C816FC01138212821183008399
:101A20002C813D81232B91F0EE81FF819383828372
:101A30009F838E838A819B8101969B838A831C86E8
:101A400081E0DF91CF911F910F9108959D838C8349
:101A5000EFCF0F931F93CF93DF93EC018B0184E0C3
:101A600090E00E94C816FC01138212821183008349
:101A70002C813D81232B91F0EE81FF819383828322
:101A80009F838E838A819B8101969B838A831C8698
:101A900081E0DF91CF911F910F9108959D838C83F9
:101AA000EFCFFF920F931F93CF93DF93DC0112963A
:101AB0000D911C9113970115110559F4ED91FC91AD
:101AC0000084F185E02DDF91CF911F910F91FF9060
:101AD0000994F62EEC0183E090E00E94C8162C8158
:101AE0003D81FC0132832183F0829D838C830F5FD3
:101AF0001F4F1B830A831C8681E0DF91CF911F91CA
:101B00000F91FF900895DF92EF92FF920F931F9332
:101B1000CF93DF93EB01642FDC0112964D915C9122
:101B20001397C417D5076CF0ED91FC910084F185F3
:101B3000E02DDF91CF911F910F91FF90EF90DF90FB
:101B40000994209731F4ED91FC910284F385E02D06
:101B5000F0CFD62E8C0183E090E00E94C8167C0165
:101B6000FC01108212821182BE0161507109C8010C
:101B70000E94FC06D701DC92FC0121813281129681
:101B80003C932E931197F282E182D80112968D91A7
:101B90009C911397019613969C938E9312971C9683
:101BA0001C9281E0DF91CF911F910F91FF90EF90F8
:101BB000DF9008951F93CF93DF93EC01162F83E0FE
:101BC00090E00E94C816FC011282118210832C81C1
:101BD0003D81232B89F0EE81FF81928381839F8356
:101BE0008E838A819B8101969B838A831C8681E0F8
:101BF000DF91CF911F9108959D838C83F0CFCF9378
:101C0000DF93EC0182E291E0998388838C819D814E
:101C1000009741F0FC01218132813D832C830E9499
:101C20006417F4CFDF91CF910895EF92FF920F9355
:101C30001F93CF93DF93DC0112962D913C91139764
:101C4000121613064CF521303105D1F0EC018C81D0
:101C50009D81FC01E280F380008111810E94641764
:101C6000FD82EC828A819B8101979B838A831C86FB
:101C7000C801DF91CF911F910F91FF90EF900895D0
:101C8000ED91FC910088F189E02DDF91CF911F91BA
:101C90000F91FF90EF90099410E000E0E9CFEF92F0
:101CA000FF920F931F93CF93DF93FC0162817381A7
:101CB00010E000E016161706E4F4EC01148661301B
:101CC0007105F9F0625071090E94BD057C01FC01AB
:101CD00082819381FC01008111810E946417F701C8
:101CE00013821282FF82EE828A819B8101979B83FD
:101CF0008A83C801DF91CF911F910F91FF90EF90E0
:101D0000089584819581FC01008111810E946417EE
:101D10001D821C821F821E821B821A82EACF0F93B1
:101D20001F93CF93DF9377FD41C0DC0112962D9175
:101D30003C91139762177307CCF56115710551F447
:101D4000ED91FC910288F389E02DDF91CF911F91F5
:101D50000F910994215031092617370731F4ED917D
:101D6000FC910088F189E02DF0CFEC016150710900
:101D70000E94BD05DC011296ED91FC911397008144
:101D800011812281338113963C932E931297CF01B8
:101D90000E9464178A819B8101979B838A831C869A
:101DA000C801DF91CF911F910F91089510E000E0DD
:101DB000F7CFCF93DF93EC018EE591E09983888391
:101DC0008C819D81009741F0FC01228133813D830C
:101DD0002C830E946417F4CFDF91CF910895CF93A5
:101DE000DF93EC010E94D90ECE01DF91CF910C94CC
:101DF0006417EF92FF920F931F93CF93DF93DC0151
:101E000012962D913C911397121613064CF5213022
:101E10003105D1F0EC018C819D81FC01E280F380E1
:101E2000008111810E946417FD82EC828A819B816E
:101E300001979B838A831C86C801DF91CF911F91F4
:101E40000F91FF90EF900895ED91FC910088F1893A
:101E5000E02DDF91CF911F910F91FF90EF900994AA
:101E600010E000E0E9CFEF92FF920F931F93CF9322
:101E7000DF93FC016281738110E000E01616170603
:101E8000E4F4EC01148661307105F9F062507109D7
:101E90000E94BD057C01FC0182819381FC010081CF
:101EA00011810E946417F70113821282FF82EE8271
:101EB0008A819B8101979B838A83C801DF91CF919F
:101EC0001F910F91FF90EF90089584819581FC01FF
:101ED000008111810E9464171D821C821F821E8254
:101EE0001B821A82EACF0F931F93CF93DF9377FD64
:101EF00041C0DC0112962D913C9113976217730734
:101F0000CCF56115710551F4ED91FC910288F389CE
:101F1000E02DDF91CF911F910F910994215031094C
:101F20002617370731F4ED91FC910088F189E02DF7
:101F3000F0CFEC01615071090E94BD05DC011296E1
:101F4000ED91FC91139700811181228133811396C9
:101F50003C932E931297CF010E9464178A819B8134
:101F600001979B838A831C86C801DF91CF911F91C3
:101F70000F91089510E000E0F7CFCF93DF93EC01CD
:101F800080E491E0998388838C819D81009741F062
:101F9000FC01228133813D832C830E946417F4CF9E
:101FA000DF91CF910895CF93DF93EC010E94BD0F95
:101FB000CE01DF91CF910C946417EF92FF921F93A3
:101FC000CF93DF93DC0112962D913C91139712165B
:101FD000130634F521303105C1F0EC018C819D816F
:101FE000FC01E180F28010810E946417FD82EC8286
:101FF0008A819B8101979B838A831C86812FDF9135
:10200000CF911F91FF90EF900895ED91FC91008882
:10201000F189E02DDF91CF911F91FF90EF9009940E
:1020200010E0ECCFEF92FF921F93CF93DF93FC0170
:102030006281738110E016161706DCF4EC01148639
:1020400061307105E9F0625071090E94FC067C0163
:10205000FC0181819281FC0110810E946417F701CB
:1020600012821182FF82EE828A819B8101979B837B
:102070008A83812FDF91CF911F91FF90EF90089578
:1020800084819581FC0110810E9464171D821C824D
:102090001F821E821B821A82ECCF1F93CF93DF9385
:1020A00077FD3EC0DC0112962D913C91139762178B
:1020B0007307B4F56115710549F4ED91FC9102883F
:1020C000F389E02DDF91CF911F91099421503109BF
:1020D0002617370731F4ED91FC910088F189E02D46
:1020E000F1CFEC01615071090E94FC06DC011196F0
:1020F000ED91FC91129710812181328112963C93CF
:102100002E931197CF010E9464178A819B810197BA
:102110009B838A831C86812FDF91CF911F91089525
:1021200010E0F9CFCF93DF93EC010E94FF0DCE01B9
:10213000DF91CF910C9464171F920F920FB60F92FC
:1021400011242F933F934F935F936F937F938F93BC
:102150009F93AF93BF93EF93FF9387E991E00E9422
:102160008B01FF91EF91BF91AF919F918F917F91E3
:102170006F915F914F913F912F910F900FBE0F90F4
:102180001F9018951F920F920FB60F9211242F9344
:102190008F939F93EF93FF93E091A701F091A80194
:1021A0008081E091AD01F091AE0182FD1BC0908174
:1021B0008091B0018F5F8F732091B101821741F040
:1021C000E091B001F0E0E956FE4F958F8093B001A9
:1021D000FF91EF919F918F912F910F900FBE0F90D4
:1021E0001F9018958081F4CF1F920F920FB60F9217
:1021F00011242F933F938F939F93AF93BF9380911D
:102200008D0190918E01A0918F01B091900130913C
:10221000880123E0230F2D3758F50196A11DB11D2C
:102220002093880180938D0190938E01A0938F015C
:10223000B09390018091890190918A01A0918B01C6
:10224000B0918C010196A11DB11D809389019093DD
:102250008A01A0938B01B0938C01BF91AF919F91A4
:102260008F913F912F910F900FBE0F901F90189557
:1022700026E8230F0296A11DB11DD2CFCF93DF9385
:10228000CDB7DEB76A970FB6F894DEBF0FBECDBFED
:10229000789484B5826084BD84B5816084BD85B541
:1022A000826085BD85B5816085BD80916E0081604D
:1022B00080936E00109281008091810082608093F3
:1022C00081008091810081608093810080918000F5
:1022D0008160809380008091B10084608093B10020
:1022E0008091B00081608093B00080917A0084601A
:1022F00080937A0080917A00826080937A00809146
:102300007A00816080937A0080917A00806880935F
:102310007A001092C1008DE090E00E94C8168C01F6
:1023200042E2C42E41E0D42EDC011196DC92CE9222
:1023300015961C921E92149717961C921E92169731
:1023400013961C921E92129719961C921E92189721
:102350001B961C921E921A971C961C928DE090E080
:102360000E94C8167C01FC01D182C08215821482B1
:1023700017821682138212821186108613861286A5
:1023800014866AE0C8010E94DA0DD701ED91FC9134
:102390000084F185E02D62E0C7010995D12CAD2CB8
:1023A000B12CD801ED91FC910480F581E02DC8019C
:1023B0000995A816B9064CF5D801ED91FC91048851
:1023C000F589E02DB501C801099590E0FC01E255C1
:1023D000FE4F249186569E4FFC018491882399F0EC
:1023E00090E0880F991FFC01EA57FE4FA591B49128
:1023F000FC01E458FE4F859194918FB7F894EC91CD
:102400002E2B2C938FBFD394CACF82E291E09A8374
:102410008983D80112962D913C9113973C832B838D
:1024200014962D913C9115973E832D8316962D91F0
:102430003C91179738872F8318962D913C911997C7
:102440003A8729871A962D913C911B973C872B87B9
:102450001C962C912D879F878E87F701828193810F
:10246000998B888B848195819B8B8A8B86819781C0
:102470009D8B8C8B808591859F8B8E8B82859385A0
:10248000998F888F84858A8F8DE090E00E94C8168E
:102490008C01AE01425F5F4FBE016F5F7F4F0E94B4
:1024A00058091093960100939501CE010E960E9453
:1024B000FF0DCE0101960E94FF0DE091A701F09162
:1024C000A80182E08083E091A301F091A401108231
:1024D000E091A501F091A6018FEC80831092AF01ED
:1024E000E091AB01F091AC0186E08083E091A9011D
:1024F000F091AA01808180618083E091A901F0912F
:10250000AA01808188608083E091A901F091AA01ED
:10251000808180688083E091A901F091AA01808187
:102520008F7D8083AA24A394B12C92E0892E912CD4
:1025300020E0222E20E0322E00919501109196018C
:10254000C8010E9457086B017C01AC019B010E94ED
:102550007316882309F48DC088E791E00E944F0725
:1025600084E891E00E944F07712CE72CF12CD801F0
:1025700015968D919C91DC01ED91FC910480F58183
:10258000E02D0995E816F9060CF03DC1F8018781A8
:102590009085DC01ED91FC910488F589E02DB7016F
:1025A0000995FC01808591850397B9F5C8010E94C2
:1025B0005708D80119962D913D914D915C911C972A
:1025C0000E94011687FDE7C0F80185819681DC0134
:1025D000ED91FC910488F589E02DB70109956C0116
:1025E00061E0FC0180810E941A02D60112969C9241
:1025F0008E9211972FB7F89480918D0190918E0152
:10260000A0918F01B09190012FBF80939101909381
:102610009201A0939301B0939401F8018581968172
:10262000DC01ED91FC910488F589E02DB701099555
:10263000FC01C180D2800D2C000CEE08FF084AE09E
:10264000C701B601F7FE0DC06DE287E991E00E9477
:10265000AD0166277727CB016C197D098E099F098B
:102660004AE00E945C0784E891E00E944F0773945F
:102670007CCF26013701E89477F82FEF3FEF4FE743
:102680005FE7C301B2010E94731681110DC02FEFE5
:102690003FEF4FE75FE7C301B2010E94A91418168C
:1026A0001CF48CE791E05ACF2FEF3FEF4FE75FE448
:1026B000C701B6010E94011618161CF480E891E0CB
:1026C0004DCF2FEF3FEF4FE75FECC701B6010E9400
:1026D000A91487FDF3CF20E030E0A901C701B601BE
:1026E0000E94A91487FF09C06DE287E991E00E946A
:1026F000AD01F7FAF094F7F8F0942AE037ED43EAE9
:102700005BE3C701B6010E943D142B013C010E940E
:1027100020156B017C010E944F159B01AC01C30188
:10272000B2010E943C142B013C014AE0C701B601F2
:102730000E945C076EE287E991E00E94AD0120E013
:1027400030E040E251E4C301B2010E9406162B01C1
:102750003C010E9420156B01F12CE12C4AE0C701DD
:10276000B6010E945C07C701B6010E944F159B018C
:10277000AC01C301B2010E943C1420E030E040E211
:1027800051E40E9406160E94201590E080E04AE085
:102790000E945C07E5CE2FB7F89480918D0190914F
:1027A0008E01A0918F01B09190012FBF40919101B6
:1027B000509192016091930170919401841B950B4B
:1027C000A60BB70BF8014181528163817481841794
:1027D0009507A607B70708F420CF85819681DC010D
:1027E000ED91FC910488F589E02DB70109956C0104
:1027F00060E0FC0180810E941A02D6011296BC9210
:10280000AE9211970ACF2114310409F495CE0E949B
:102810007701882309F490CE0E9400008DCEE7E96D
:10282000F1E01382128288EE93E0A0E0B0E08483AE
:102830009583A683B78380E191E09183808385ECC3
:1028400090E09587848784EC90E09787868780EC7A
:1028500090E0918B808B81EC90E0938B828B82EC6B
:1028600090E0958B848B86EC90E0978B868B118E15
:10287000128E138E148E08955058BB27AA270E94DB
:1028800054140C94C7150E94B91538F00E94C01555
:1028900020F039F49F3F19F426F40C94B6150EF489
:1028A000E095E7FB0C94B015E92F0E94D81558F37A
:1028B000BA17620773078407950720F079F4A6F525
:1028C0000C94FA150EF4E0950B2EBA2FA02D0B01E7
:1028D000B90190010C01CA01A0011124FF27591B65
:1028E00099F0593F50F4503E68F11A16F040A22F6B
:1028F000232F342F4427585FF3CF469537952795DC
:10290000A795F0405395C9F77EF41F16BA0B620BDA
:10291000730B840BBAF09150A1F0FF0FBB1F661F21
:10292000771F881FC2F70EC0BA0F621F731F841F64
:1029300048F4879577956795B795F7959E3F08F08A
:10294000B0CF9395880F08F09927EE0F979587954C
:1029500008950E948C1508F481E008950E94C21425
:102960000C94C7150E94C01558F00E94B91540F08C
:1029700029F45F3F29F00C94B01551110C94FB150C
:102980000C94B6150E94D81568F39923B1F355231A
:1029900091F3951B550BBB27AA2762177307840772
:1029A00038F09F5F5F4F220F331F441FAA1FA9F308
:1029B00035D00E2E3AF0E0E832D091505040E695F6
:1029C000001CCAF72BD0FE2F29D0660F771F881F57
:1029D000BB1F261737074807AB07B0E809F0BB0B4A
:1029E000802DBF01FF2793585F4F3AF09E3F51055E
:1029F00078F00C94B0150C94FB155F3FE4F3983E0F
:102A0000D4F3869577956795B795F7959F5FC9F746
:102A1000880F911D9695879597F90895E1E0660FC7
:102A2000771F881FBB1F621773078407BA0720F040
:102A3000621B730B840BBA0BEE1F88F7E0950895A9
:102A40000E94E01588F09F5798F0B92F9927B75149
:102A5000B0F0E1F0660F771F881F991F1AF0BA9542
:102A6000C9F714C0B13091F00E94FA15B1E0089591
:102A70000C94FA15672F782F8827B85F39F0B93F83
:102A8000CCF3869577956795B395D9F73EF49095F5
:102A90008095709561957F4F8F4F9F4F0895E89473
:102AA00009C097FB3EF490958095709561957F4F96
:102AB0008F4F9F4F9923A9F0F92F96E9BB27939544
:102AC000F695879577956795B795F111F8CFFAF454
:102AD000BB0F11F460FF1BC06F5F7F4F8F4F9F4F85
:102AE00016C0882311F096E911C0772321F09EE8E3
:102AF000872F762F05C0662371F096E8862F70E049
:102B000060E02AF09A95660F771F881FDAF7880F22
:102B10009695879597F90895990F0008550FAA0B78
:102B2000E0E8FEEF16161706E807F907C0F01216E0
:102B30001306E407F50798F0621B730B840B950BE3
:102B400039F40A2661F0232B242B252B21F4089538
:102B50000A2609F4A140A6958FEF811D811D0895D5
:102B600097F99F6780E870E060E008959FEF80EC40
:102B7000089500240A9416161706180609060895E3
:102B800000240A9412161306140605060895092E49
:102B90000394000C11F4882352F0BB0F40F4BF2BB8
:102BA00011F460FF04C06F5F7F4F8F4F9F4F0895F8
:102BB00057FD9058440F551F59F05F3F71F04795EE
:102BC000880F97FB991F61F09F3F79F087950895D3
:102BD000121613061406551FF2CF4695F1DF08C0F2
:102BE000161617061806991FF1CF8695710561050F
:102BF00008940895E894BB2766277727CB0197F9B7
:102C000008950E948C1508F48FEF08950E941916FC
:102C10000C94C7150E94B91538F00E94C01520F019
:102C2000952311F00C94B0150C94B61511240C9446
:102C3000FB150E94D81570F3959FC1F3950F50E0D6
:102C4000551F629FF001729FBB27F00DB11D639F5E
:102C5000AA27F00DB11DAA1F649F6627B00DA11D04
:102C6000661F829F2227B00DA11D621F739FB00DAA
:102C7000A11D621F839FA00D611D221F749F33271A
:102C8000A00D611D231F849F600D211D822F762FB3
:102C90006A2F11249F5750409AF0F1F088234AF090
:102CA000EE0FFF1FBB1F661F771F881F91505040FC
:102CB000A9F79E3F510580F00C94B0150C94FB15BC
:102CC0005F3FE4F3983ED4F3869577956795B79583
:102CD000F795E7959F5FC1F7FE2B880F911D96959D
:102CE000879597F908950E948C15880B990B089584
:102CF00097FB072E16F4009407D077FD09D00E94A9
:102D0000AE1607FC05D03EF4909581959F4F08952F
:102D1000709561957F4F0895A1E21A2EAA1BBB1BE7
:102D2000FD010DC0AA1FBB1FEE1FFF1FA217B30797
:102D3000E407F50720F0A21BB30BE40BF50B661FAD
:102D4000771F881F991F1A9469F760957095809571
:102D500090959B01AC01BD01CF010895AA1BBB1B3F
:102D600051E107C0AA1FBB1FA617B70710F0A61B8B
:102D7000B70B881F991F5A95A9F780959095BC01AC
:102D8000CD010895EE0FFF1F0590F491E02D0994F9
:102D90000F931F93CF93DF938230910510F482E05D
:102DA00090E0E0913602F091370230E020E0B0E0B0
:102DB000A0E0309799F42115310509F44AC0281B89
:102DC000390B24303105D8F58A819B816115710555
:102DD00089F1FB0193838283FE0111C040815181FF
:102DE0000281138148175907E0F04817590799F4F1
:102DF000109761F012960C93129713961C933296CB
:102E0000CF01DF91CF911F910F910895009336026A
:102E100010933702F4CF2115310551F042175307B3
:102E200038F0A901DB019A01BD01DF01F801C1CF32
:102E3000EF01F9CF9093370280933602CDCFFE0198
:102E4000E20FF31F81939193225031093983288334
:102E5000D7CF2091340230913502232B41F42091B9
:102E60000201309103013093350220933402209106
:102E70000001309101012115310541F42DB73EB714
:102E80004091040150910501241B350BE09134025F
:102E9000F0913502E217F307A0F42E1B3F0B281721
:102EA000390778F0AC014E5F5F4F2417350748F0C3
:102EB0004E0F5F1F509335024093340281939193DC
:102EC0009FCFF0E0E0E09CCFCF93DF930097E9F055
:102ED000FC01329713821282A0913602B091370220
:102EE000ED0130E020E01097A1F420813181820FC4
:102EF000931F20913402309135022817390709F0C9
:102F000061C0F0933502E0933402DF91CF910895D0
:102F1000EA01CE17DF07E8F54A815B819E01411582
:102F20005105B1F7E901FB83EA8349915991C40F37
:102F3000D51FEC17FD0761F4808191810296840F03
:102F4000951FE90199838883828193819B838A837A
:102F5000F0E0E0E012968D919C9113970097B9F5FF
:102F60002D913C911197CD010296820F931F2091D4
:102F70003402309135022817390739F6309751F568
:102F80001092370210923602B0933502A0933402A9
:102F9000BCCFD383C28340815181840F951FC81752
:102FA000D90761F44E5F5F4F88819981480F591F9F
:102FB000518340838A819B819383828321153105CC
:102FC00009F0B0CFF0933702E09336029ECFFD01B7
:0E2FD000DC01C0CF13821282D7CFF894FFCF5E
:102FDE000000380280005E00BC0077010000000097
:102FEE00AD010D013A01FA016B0149015D010000CD
:102FFE000000FF0D92102006830DDA0D510D3307E0
:10300E004D101210DD0F4607E406550600000000B5
:10301E00BD0FD30F2006A40C010D6E0CF405730F1B
:10302E00330FF90E2F06A505160500000000D90E68
:10303E00EF0E2006110C290DDB0B0A068F0E4F0E1C
:10304E00150E2406FE046F046E616E00696E660036
:08305E006F7666000D0A000008
:00000001FF
